:020000040800F2
:1000000060060020190200082102000823020008EF
:10001000250200082702000829020008000000004D
:100020000000000000000000000000002B0200089B
:100030002D020008000000002F0200083102000815
:1000400033020008330200083302000833020008BC
:1000500033020008330200083302000833020008AC
:10006000330200083302000833020008330200089C
:10007000330200083302000833020008330200088C
:1000800033020008330200083302000800000000B9
:100090000000000000000000000000003302000823
:1000A000330200083302000833020008330200085C
:1000B000330200083302000833020008330200084C
:1000C000330200083302000833020008330200083C
:1000D0003302000833020008330200080000000069
:1000E000D5020008330200083302000800000000B7
:1000F00000000000000000000000000033020008C3
:100100000000000033020008330200083302000838
:1001100000000000000000000000000000000000DF
:1001200033020008330200083302000833020008DB
:100130003302000800000000000000000000000082
:100140000000000000000000000000003302000872
:1001500033020008330200083302000833020008AB
:100160003302000833020008000000000000000015
:10017000000000000000000000000000000000007F
:100180000000000033020008000000000000000032
:100190003302000800F002F800F02EF80AA090E800
:1001A000000C82448344AAF10107DA4501D100F032
:1001B00023F8AFF2090EBAE80F0013F0010F18BFD1
:1001C000FB1A43F001031847D8020000E8020000C0
:1001D0000023002400250026103A28BF78C1FBD850
:1001E000520728BF30C148BF0B6070471FB500F0F1
:1001F0004AF91FBD10B510BD00F031F81146FFF7E8
:10020000F5FF00F0E9F800F04FF803B4FFF7F2FF54
:1002100003BC00F057F80000094880470948004730
:10022000FEE7FEE7FEE7FEE7FEE7FEE7FEE7FEE7A6
:10023000FEE7FEE704480549054A064B7047000003
:1002400015030008950100086000002060060020EA
:1002500060020020600200207047704770477546BA
:1002600000F02CF8AE4605006946534620F0070022
:10027000854618B020B5FFF7DDFFBDE820404FF000
:1002800000064FF000074FF000084FF0000BAC469F
:10029000ACE8C009ACE8C009ACE8C009ACE8C009EA
:1002A00021F007018D46704710B50446AFF300807A
:1002B0002046BDE81040FFF7A8BF00000048704787
:1002C0000000002001491820ABBEFEE72600020016
:1002D0007047000080B540F61441C4F2020108687E
:1002E0004FF6FF621043086008684FF60152104352
:1002F0000860142000F042F841F2883000F03EF827
:1003000043F61441C4F20101086840F4005008604B
:1003100080BD00004EF68851CEF20001086840F41E
:1003200070000860704700004EF21401CEF2000128
:100330006FF07F4008604EF21001CEF20001052000
:100340000860704781B00090009801384EF21401A7
:10035000CEF2000108604EF21801CEF2000100203A
:100360000860FFE74EF21000CEF200000068C00304
:10037000002801D4FFE7F5E701B0704780B582B0EF
:10038000019000200090FFE700980199884209D26F
:10039000FFE74FF47A50FFF7D5FFFFE700980130F1
:1003A0000090F1E702B080BD81B08DF803009DF9A7
:1003B000030000280ED4FFE79DF9031001F01F028F
:1003C000012090404A094EF20011CEF2000141F89E
:1003D0002200FFE701B0704780B582B00020019095
:1003E000FFF7A2FF43F63001C4F20201086840F0B3
:1003F0000C00086040F60041C4F20201086840F0B9
:100400005530086040F60441C4F2020108680860F3
:1004100040F60841C4F20201086840F0AA300860C2
:1004200040F60C41C4F202010868086043F644013A
:10043000C4F20201086840F48040086043F61401E9
:10044000C4F20101086840F02000086043F6004152
:10045000C4F20101086840F40050086043F6084106
:10046000C4F20101086840F4005008602820FFF73A
:100470009BFFFFE740F61841C4F202010868CFF67F
:10048000FF700860F6E7F1EE100A4FF6FF71C0F258
:10049000C03120EA010040F04070E1EE100A7047E0
:1004A000B00400080000002060060000D001000831
:0400000508000219D4
:00000001FF
