:020000040800F2
:1000000078060020190200082102000823020008D7
:10001000250200082702000829020008000000004D
:100020000000000000000000000000002B0200089B
:100030002D020008000000002F0200083102000815
:1000400033020008330200083302000833020008BC
:1000500033020008330200083302000833020008AC
:10006000330200083302000833020008330200089C
:10007000330200083302000833020008330200088C
:1000800033020008330200083302000800000000B9
:100090000000000000000000000000003302000823
:1000A000330200083302000833020008330200085C
:1000B000330200083302000833020008330200084C
:1000C000330200083302000833020008330200083C
:1000D0003302000833020008330200080000000069
:1000E0003302000833020008330200080000000059
:1000F00000000000000000000000000033020008C3
:100100000000000033020008330200083302000838
:1001100000000000000000000000000000000000DF
:1001200033020008330200083302000833020008DB
:100130003302000800000000000000000000000082
:100140000000000000000000000000003302000872
:1001500033020008330200083302000833020008AB
:100160003302000833020008000000000000000015
:10017000000000000000000000000000000000007F
:100180000000000033020008000000000000000032
:100190003302000800F002F800F02EF80AA090E800
:1001A000000C82448344AAF10107DA4501D100F032
:1001B00023F8AFF2090EBAE80F0013F0010F18BFD1
:1001C000FB1A43F001031847EC030000FC03000096
:1001D0000023002400250026103A28BF78C1FBD850
:1001E000520728BF30C148BF0B6070471FB500F0F1
:1001F000D4F91FBD10B510BD00F031F81146FFF75E
:10020000F5FF00F071F800F04FF803B4FFF7F2FFCC
:1002100003BC00F057F80000094880470948004730
:10022000FEE7FEE7FEE7FEE7FEE7FEE7FEE7FEE7A6
:10023000FEE7FEE704480549054A064B7047000003
:10024000D5020008950100087800002078060020FB
:10025000780200207802002070477047704775468A
:1002600000F02CF8AE4605006946534620F0070022
:10027000854618B020B5FFF7DDFFBDE820404FF000
:1002800000064FF000074FF000084FF0000BAC469F
:10029000ACE8C009ACE8C009ACE8C009ACE8C009EA
:1002A00021F007018D46704710B50446AFF300807A
:1002B0002046BDE81040FFF7A8BF00000048704787
:1002C0000000002001491820ABBEFEE72600020016
:1002D000704700004EF68850CEF20000016841F4ED
:1002E00070010160704700002DE9F04743F63002CD
:1002F000C4F20202116840F2184041F00201C4F257
:100300000200116050F8181C40F2600C41F480515A
:1003100040F8181C50F8181C40F2640E21F40051EB
:1003200040F8181C50F8181C40F26C0841F4804149
:1003300040F8181C50F8181C40F2700921F40041D4
:1003400040F8181C50F8181C40F2740A41F480312F
:1003500040F8181C50F8181C40F2680521F40031D0
:1003600040F8181C50F8181CC2F2000C41F480210F
:1003700040F8181C50F8181CC2F2000E21F400219D
:1003800040F8181C50F8141CC2F2000840F8141C65
:1003900050F8101CC2F2000940F8101C50F80C1C58
:1003A000C2F2000A40F80C1C136840F6100143F03A
:1003B0000403C4F20201136051F80C2CC2F20005D0
:1003C00041F80C2C51F8082C41F8082C0A6812F05E
:1003D0000107CCF800700A6802F00202CEF8002093
:1003E0000B6803F00803C8F800300C6804F010062E
:1003F000C9F800600C6804F02004CAF8004018BF77
:10040000002B5FD1002F18BF002E5BD1002F18BF2B
:10041000002C57D1002A18BF002B04D1002A18BF86
:10042000002E00F0A6800A6812F004022A6040F054
:10043000B180026842F040020260026842F080022D
:100440000260026842F080720260026842F000724C
:1004500002600A6812F004022A6040F09B80026881
:1004600042F040020260026842F400020260026848
:1004700042F080720260026842F4007202600A6810
:1004800012F004022A6040F08580026842F4800283
:100490000260026842F400020260026842F4807264
:1004A0000260026842F4007202600A6812F00402FC
:1004B0002A606FD14FF000764FF4807780224FF49E
:1004C00080034AE00A6812F004022A6062D10268DE
:1004D00042F040020260026842F08002026002685C
:1004E00042F080720260026842F0007202600A68A4
:1004F00012F004022A604DD1026842F480020260C8
:10050000026842F080020260026842F48072026077
:10051000026842F0007202600A6812F004022A6067
:1005200038D1026842F480020260026842F400029C
:100530000260026842F480720260026842F4007253
:1005400002600A6812F004022A6023D14FF4007698
:100550004FF080774FF40002402304682343036088
:1005600003681A43026002683A4302600268324339
:100570000260026842F480020260026842F40002F3
:100580000260026842F080720260026842F000720B
:1005900002601BE70020BDE8F087F1EE100A4FF67D
:1005A000FF71C0F2C03120EA010040F04070E1EE7E
:1005B000100A7047C40500080000002078060000FB
:0405C000D00100085E
:0400000508000219D4
:00000001FF
