:020000040800F2
:1000000078060020190200082102000823020008D7
:10001000250200082702000829020008000000004D
:100020000000000000000000000000002B0200089B
:100030002D020008000000002F0200083102000815
:1000400033020008330200083302000833020008BC
:1000500033020008330200083302000833020008AC
:10006000330200083302000833020008330200089C
:10007000330200083302000833020008330200088C
:1000800033020008330200083302000800000000B9
:100090000000000000000000000000003302000823
:1000A000330200083302000833020008330200085C
:1000B000330200083302000833020008330200084C
:1000C000330200083302000833020008330200083C
:1000D0003302000833020008330200080000000069
:1000E0003302000833020008330200080000000059
:1000F00000000000000000000000000033020008C3
:100100000000000033020008330200083302000838
:1001100000000000000000000000000000000000DF
:1001200033020008330200083302000833020008DB
:100130003302000800000000000000000000000082
:100140000000000000000000000000003302000872
:1001500033020008330200083302000833020008AB
:100160003302000833020008000000000000000015
:10017000000000000000000000000000000000007F
:100180000000000033020008000000000000000032
:100190003302000800F002F800F02EF80AA090E800
:1001A000000C82448344AAF10107DA4501D100F032
:1001B00023F8AFF2090EBAE80F0013F0010F18BFD1
:1001C000FB1A43F0010318475C0400006C040000B4
:1001D0000023002400250026103A28BF78C1FBD850
:1001E000520728BF30C148BF0B6070471FB500F0F1
:1001F0000BFA1FBD10B510BD00F031F81146FFF726
:10020000F5FF00F071F800F04FF803B4FFF7F2FFCC
:1002100003BC00F057F80000094880470948004730
:10022000FEE7FEE7FEE7FEE7FEE7FEE7FEE7FEE7A6
:10023000FEE7FEE704480549054A064B7047000003
:10024000D5020008950100087800002078060020FB
:10025000780200207802002070477047704775468A
:1002600000F02CF8AE4605006946534620F0070022
:10027000854618B020B5FFF7DDFFBDE820404FF000
:1002800000064FF000074FF000084FF0000BAC469F
:10029000ACE8C009ACE8C009ACE8C009ACE8C009EA
:1002A00021F007018D46704710B50446AFF300807A
:1002B0002046BDE81040FFF7A8BF00000048704787
:1002C0000000002001491820ABBEFEE72600020016
:1002D000704700004EF68850CEF20000016841F4ED
:1002E00070010160704700002DE9F04F43F63002C5
:1002F000C4F20202116840F2184041F00201C4F257
:100300000200116050F8181C43F60C4C41F4805167
:1003100040F8181C50F8181C40F2600E21F40051EF
:1003200040F8181C50F8181C40F26C0441F480414D
:1003300040F8181C50F8181C40F2700B21F40041D2
:1003400040F8181C50F8181C40F2740A41F480312F
:1003500040F8181C50F8181C40F2680721F40031CE
:1003600040F8181C50F8181CC4F2010C41F480210C
:1003700040F8181C50F8181CC2F2000E21F400219D
:1003800040F8181C50F8141CC2F2000440F8141C69
:1003900050F8101CC2F2000B40F8101C50F80C1C56
:1003A000C2F2000A40F80C1C136840F6100143F03A
:1003B0000403C4F20201136051F80C2C43F6080345
:1003C00041F80C2C51F8082CC4F20103C2F20007CA
:1003D00041F8082C0A6840F2640502F00102CEF8E8
:1003E00000200A68C2F2000502F002022A600A68D0
:1003F0004FF4007502F0080222600A6802F0100251
:10040000CBF800200A6802F02002CAF800201A681F
:1004100022F0F0021A601A6842F020021A60D3F843
:10042000F82342F00202C3F8F823D3F8002442F084
:100430000202C3F80024DCF80020CCF800204EF2C1
:100440000012CEF200021560DEF800202568002AB6
:1004500018BF002D0CD1DBF80060002A18BF002E59
:1004600006D1002A73D0DAF80020002A6FD000BF2E
:100470000A6812F004023A6040F0C380026842F059
:1004800040020260026842F080020260026842F0AC
:1004900080720260026842F0007202600A6812F024
:1004A00004023A6040F0AD80026842F480020260CB
:1004B000026842F080020260026842F480720260C8
:1004C000026842F0007202600A6812F004023A60A8
:1004D00040F09780026842F480020260026842F4B1
:1004E00000020260026842F480720260026842F414
:1004F000007202600A6812F004023A6040F08180E3
:100500004FF400764FF080754FF400084FF040092B
:10051000026842EA09020260026842EA08020260D6
:1005200002682A430260026832430260026842F4B1
:1005300080020260026842F400020260026842F037
:1005400080720260026842F00072026042E740F28C
:100550006402C2F200021268002A18BF002D03D103
:10056000002A18BF002EE1D00A6812F004023A6097
:1005700047D1026842F040020260026842F0800205
:100580000260026842F080720260026842F000720B
:1005900002600A6812F004023A6032D1026842F046
:1005A00040020260026842F400020260026842F007
:1005B00080720260026842F4007202600A6812F0FF
:1005C00004023A601DD1026842F4800202600268AF
:1005D00042F400020260026842F480720260026823
:1005E00042F4007202600A6812F004023A6008D114
:1005F0004FF000764FF480754FF080084FF480097B
:1006000086E70020BDE8F08FF1EE100A4FF6FF718B
:10061000C0F2C03120EA010040F04070E1EE100A63
:100620007047000034060008000000207806000033
:04063000D0010008ED
:0400000508000219D4
:00000001FF
